{
  "contractName": "ZombieOwnership",
  "abi": [
    {
      "anonymous": false,
      "inputs": [
        {
          "indexed": true,
          "internalType": "address",
          "name": "_owner",
          "type": "address"
        },
        {
          "indexed": true,
          "internalType": "address",
          "name": "_approved",
          "type": "address"
        },
        {
          "indexed": true,
          "internalType": "uint256",
          "name": "_tokenId",
          "type": "uint256"
        }
      ],
      "name": "Approval",
      "type": "event"
    },
    {
      "anonymous": false,
      "inputs": [
        {
          "indexed": false,
          "internalType": "uint256",
          "name": "zombieId",
          "type": "uint256"
        },
        {
          "indexed": false,
          "internalType": "string",
          "name": "name",
          "type": "string"
        },
        {
          "indexed": false,
          "internalType": "uint256",
          "name": "dna",
          "type": "uint256"
        }
      ],
      "name": "NewZombie",
      "type": "event"
    },
    {
      "anonymous": false,
      "inputs": [
        {
          "indexed": true,
          "internalType": "address",
          "name": "previousOwner",
          "type": "address"
        },
        {
          "indexed": true,
          "internalType": "address",
          "name": "newOwner",
          "type": "address"
        }
      ],
      "name": "OwnershipTransferred",
      "type": "event"
    },
    {
      "anonymous": false,
      "inputs": [
        {
          "indexed": true,
          "internalType": "address",
          "name": "_from",
          "type": "address"
        },
        {
          "indexed": true,
          "internalType": "address",
          "name": "_to",
          "type": "address"
        },
        {
          "indexed": true,
          "internalType": "uint256",
          "name": "_tokenId",
          "type": "uint256"
        }
      ],
      "name": "Transfer",
      "type": "event"
    },
    {
      "constant": false,
      "inputs": [
        {
          "internalType": "uint256",
          "name": "_zombieId",
          "type": "uint256"
        },
        {
          "internalType": "uint256",
          "name": "_targetId",
          "type": "uint256"
        }
      ],
      "name": "attack",
      "outputs": [],
      "payable": false,
      "stateMutability": "nonpayable",
      "type": "function"
    },
    {
      "constant": false,
      "inputs": [
        {
          "internalType": "uint256",
          "name": "_zombieId",
          "type": "uint256"
        },
        {
          "internalType": "uint256",
          "name": "_newDna",
          "type": "uint256"
        }
      ],
      "name": "changeDna",
      "outputs": [],
      "payable": false,
      "stateMutability": "nonpayable",
      "type": "function"
    },
    {
      "constant": false,
      "inputs": [
        {
          "internalType": "uint256",
          "name": "_zombieId",
          "type": "uint256"
        },
        {
          "internalType": "string",
          "name": "_newName",
          "type": "string"
        }
      ],
      "name": "changeName",
      "outputs": [],
      "payable": false,
      "stateMutability": "nonpayable",
      "type": "function"
    },
    {
      "constant": false,
      "inputs": [
        {
          "internalType": "string",
          "name": "_name",
          "type": "string"
        }
      ],
      "name": "createRandomZombie",
      "outputs": [],
      "payable": false,
      "stateMutability": "nonpayable",
      "type": "function"
    },
    {
      "constant": false,
      "inputs": [
        {
          "internalType": "uint256",
          "name": "_zombieId",
          "type": "uint256"
        },
        {
          "internalType": "uint256",
          "name": "_kittyId",
          "type": "uint256"
        }
      ],
      "name": "feedOnKitty",
      "outputs": [],
      "payable": false,
      "stateMutability": "nonpayable",
      "type": "function"
    },
    {
      "constant": true,
      "inputs": [
        {
          "internalType": "address",
          "name": "_owner",
          "type": "address"
        }
      ],
      "name": "getZombiesByOwner",
      "outputs": [
        {
          "internalType": "uint256[]",
          "name": "",
          "type": "uint256[]"
        }
      ],
      "payable": false,
      "stateMutability": "view",
      "type": "function"
    },
    {
      "constant": true,
      "inputs": [],
      "name": "isOwner",
      "outputs": [
        {
          "internalType": "bool",
          "name": "",
          "type": "bool"
        }
      ],
      "payable": false,
      "stateMutability": "view",
      "type": "function"
    },
    {
      "constant": false,
      "inputs": [
        {
          "internalType": "uint256",
          "name": "_zombieId",
          "type": "uint256"
        }
      ],
      "name": "levelUp",
      "outputs": [],
      "payable": true,
      "stateMutability": "payable",
      "type": "function"
    },
    {
      "constant": true,
      "inputs": [],
      "name": "owner",
      "outputs": [
        {
          "internalType": "address",
          "name": "",
          "type": "address"
        }
      ],
      "payable": false,
      "stateMutability": "view",
      "type": "function"
    },
    {
      "constant": false,
      "inputs": [],
      "name": "renounceOwnership",
      "outputs": [],
      "payable": false,
      "stateMutability": "nonpayable",
      "type": "function"
    },
    {
      "constant": false,
      "inputs": [
        {
          "internalType": "address",
          "name": "_address",
          "type": "address"
        }
      ],
      "name": "setKittyContractAddress",
      "outputs": [],
      "payable": false,
      "stateMutability": "nonpayable",
      "type": "function"
    },
    {
      "constant": false,
      "inputs": [
        {
          "internalType": "uint256",
          "name": "_fee",
          "type": "uint256"
        }
      ],
      "name": "setLevelUpFee",
      "outputs": [],
      "payable": false,
      "stateMutability": "nonpayable",
      "type": "function"
    },
    {
      "constant": false,
      "inputs": [
        {
          "internalType": "address",
          "name": "newOwner",
          "type": "address"
        }
      ],
      "name": "transferOwnership",
      "outputs": [],
      "payable": false,
      "stateMutability": "nonpayable",
      "type": "function"
    },
    {
      "constant": true,
      "inputs": [
        {
          "internalType": "uint256",
          "name": "",
          "type": "uint256"
        }
      ],
      "name": "zombieToOwner",
      "outputs": [
        {
          "internalType": "address",
          "name": "",
          "type": "address"
        }
      ],
      "payable": false,
      "stateMutability": "view",
      "type": "function"
    },
    {
      "constant": true,
      "inputs": [
        {
          "internalType": "uint256",
          "name": "",
          "type": "uint256"
        }
      ],
      "name": "zombies",
      "outputs": [
        {
          "internalType": "string",
          "name": "name",
          "type": "string"
        },
        {
          "internalType": "uint256",
          "name": "dna",
          "type": "uint256"
        },
        {
          "internalType": "uint32",
          "name": "level",
          "type": "uint32"
        },
        {
          "internalType": "uint32",
          "name": "readyTime",
          "type": "uint32"
        },
        {
          "internalType": "uint16",
          "name": "winCount",
          "type": "uint16"
        },
        {
          "internalType": "uint16",
          "name": "lossCount",
          "type": "uint16"
        }
      ],
      "payable": false,
      "stateMutability": "view",
      "type": "function"
    },
    {
      "constant": true,
      "inputs": [
        {
          "internalType": "address",
          "name": "_owner",
          "type": "address"
        }
      ],
      "name": "balanceOf",
      "outputs": [
        {
          "internalType": "uint256",
          "name": "",
          "type": "uint256"
        }
      ],
      "payable": false,
      "stateMutability": "view",
      "type": "function"
    },
    {
      "constant": true,
      "inputs": [
        {
          "internalType": "uint256",
          "name": "_tokenId",
          "type": "uint256"
        }
      ],
      "name": "ownerOf",
      "outputs": [
        {
          "internalType": "address",
          "name": "",
          "type": "address"
        }
      ],
      "payable": false,
      "stateMutability": "view",
      "type": "function"
    },
    {
      "constant": false,
      "inputs": [
        {
          "internalType": "address",
          "name": "_from",
          "type": "address"
        },
        {
          "internalType": "address",
          "name": "_to",
          "type": "address"
        },
        {
          "internalType": "uint256",
          "name": "_tokenId",
          "type": "uint256"
        }
      ],
      "name": "transferFrom",
      "outputs": [],
      "payable": true,
      "stateMutability": "payable",
      "type": "function"
    },
    {
      "constant": false,
      "inputs": [
        {
          "internalType": "address",
          "name": "_approved",
          "type": "address"
        },
        {
          "internalType": "uint256",
          "name": "_tokenId",
          "type": "uint256"
        }
      ],
      "name": "approve",
      "outputs": [],
      "payable": true,
      "stateMutability": "payable",
      "type": "function"
    }
  ],
  "bytecode": "0x60806040526010600155600154600a0a6002556201518060035566038d7ea4c6800060085560006009556046600a55336000806101000a81548173ffffffffffffffffffffffffffffffffffffffff021916908373ffffffffffffffffffffffffffffffffffffffff1602179055506000809054906101000a900473ffffffffffffffffffffffffffffffffffffffff1673ffffffffffffffffffffffffffffffffffffffff16600073ffffffffffffffffffffffffffffffffffffffff167f8be0079c531659141344cd1fd0a4f28419497f9722a3daafe3b4186f6b6457e060405160405180910390a3612143806100f96000396000f3fe6080604052600436106101145760003560e01c80636352211e116100a05780638f32d59b116100645780638f32d59b14610714578063c39cbef114610743578063ccf670f8146107d3578063e1fa76381461080e578063f2fde38b1461085357610114565b80636352211e146104fe57806370a0823114610579578063715018a6146105de5780637bff0a01146105f55780638da5cb5b146106bd57610114565b806323b872dd116100e757806323b872dd146102d95780634412e10414610347578063528b7b8f146103ed5780635f4623f1146104685780635faf2880146104b957610114565b8063095ea7b3146101195780630ce90ec21461016757806317a7f4cc146101955780632052465e146101da575b600080fd5b6101656004803603604081101561012f57600080fd5b81019080803573ffffffffffffffffffffffffffffffffffffffff169060200190929190803590602001909291905050506108a4565b005b6101936004803603602081101561017d57600080fd5b81019080803590602001909291905050506109c2565b005b3480156101a157600080fd5b506101d8600480360360408110156101b857600080fd5b810190808035906020019092919080359060200190929190505050610a57565b005b3480156101e657600080fd5b50610213600480360360208110156101fd57600080fd5b8101908080359060200190929190505050610be2565b60405180806020018781526020018663ffffffff1663ffffffff1681526020018563ffffffff1663ffffffff1681526020018461ffff1661ffff1681526020018361ffff1661ffff168152602001828103825288818151815260200191508051906020019080838360005b8381101561029957808201518184015260208101905061027e565b50505050905090810190601f1680156102c65780820380516001836020036101000a031916815260200191505b5097505050505050505060405180910390f35b610345600480360360608110156102ef57600080fd5b81019080803573ffffffffffffffffffffffffffffffffffffffff169060200190929190803573ffffffffffffffffffffffffffffffffffffffff16906020019092919080359060200190929190505050610cff565b005b34801561035357600080fd5b506103966004803603602081101561036a57600080fd5b81019080803573ffffffffffffffffffffffffffffffffffffffff169060200190929190505050610de3565b6040518080602001828103825283818151815260200191508051906020019060200280838360005b838110156103d95780820151818401526020810190506103be565b505050509050019250505060405180910390f35b3480156103f957600080fd5b506104266004803603602081101561041057600080fd5b8101908080359060200190929190505050610f10565b604051808273ffffffffffffffffffffffffffffffffffffffff1673ffffffffffffffffffffffffffffffffffffffff16815260200191505060405180910390f35b34801561047457600080fd5b506104b76004803603602081101561048b57600080fd5b81019080803573ffffffffffffffffffffffffffffffffffffffff169060200190929190505050610f43565b005b3480156104c557600080fd5b506104fc600480360360408110156104dc57600080fd5b810190808035906020019092919080359060200190929190505050610f98565b005b34801561050a57600080fd5b506105376004803603602081101561052157600080fd5b8101908080359060200190929190505050611072565b604051808273ffffffffffffffffffffffffffffffffffffffff1673ffffffffffffffffffffffffffffffffffffffff16815260200191505060405180910390f35b34801561058557600080fd5b506105c86004803603602081101561059c57600080fd5b81019080803573ffffffffffffffffffffffffffffffffffffffff1690602001909291905050506110af565b6040518082815260200191505060405180910390f35b3480156105ea57600080fd5b506105f36110f8565b005b34801561060157600080fd5b506106bb6004803603602081101561061857600080fd5b810190808035906020019064010000000081111561063557600080fd5b82018360208201111561064757600080fd5b8035906020019184600183028401116401000000008311171561066957600080fd5b91908080601f016020809104026020016040519081016040528093929190818152602001838380828437600081840152601f19601f8201169050808301925050505050505091929192905050506111c8565b005b3480156106c957600080fd5b506106d261123e565b604051808273ffffffffffffffffffffffffffffffffffffffff1673ffffffffffffffffffffffffffffffffffffffff16815260200191505060405180910390f35b34801561072057600080fd5b50610729611267565b604051808215151515815260200191505060405180910390f35b34801561074f57600080fd5b506107d16004803603604081101561076657600080fd5b81019080803590602001909291908035906020019064010000000081111561078d57600080fd5b82018360208201111561079f57600080fd5b803590602001918460018302840111640100000000831117156107c157600080fd5b90919293919293905050506112be565b005b3480156107df57600080fd5b5061080c600480360360208110156107f657600080fd5b81019080803590602001909291905050506113a4565b005b34801561081a57600080fd5b506108516004803603604081101561083157600080fd5b8101908080359060200190929190803590602001909291905050506113bf565b005b34801561085f57600080fd5b506108a26004803603602081101561087657600080fd5b81019080803573ffffffffffffffffffffffffffffffffffffffff16906020019092919050505061164b565b005b806005600082815260200190815260200160002060009054906101000a900473ffffffffffffffffffffffffffffffffffffffff1673ffffffffffffffffffffffffffffffffffffffff163373ffffffffffffffffffffffffffffffffffffffff161461091057600080fd5b82600b600084815260200190815260200160002060006101000a81548173ffffffffffffffffffffffffffffffffffffffff021916908373ffffffffffffffffffffffffffffffffffffffff160217905550818373ffffffffffffffffffffffffffffffffffffffff163373ffffffffffffffffffffffffffffffffffffffff167f8c5be1e5ebec7d5bd14f71427d1e84f3dd0314c0f7b2291e5b200ac8c7c3b92560405160405180910390a4505050565b60085434146109d057600080fd5b610a186001600483815481106109e257fe5b906000526020600020906003020160020160009054906101000a900463ffffffff1663ffffffff1661166890919063ffffffff16565b60048281548110610a2557fe5b906000526020600020906003020160020160006101000a81548163ffffffff021916908363ffffffff16021790555050565b6000600760009054906101000a900473ffffffffffffffffffffffffffffffffffffffff1673ffffffffffffffffffffffffffffffffffffffff1663e98b7f4d836040518263ffffffff1660e01b8152600401808281526020019150506101406040518083038186803b158015610acd57600080fd5b505afa158015610ae1573d6000803e3d6000fd5b505050506040513d610140811015610af857600080fd5b810190808051906020019092919080519060200190929190805190602001909291908051906020019092919080519060200190929190805190602001909291908051906020019092919080519060200190929190805190602001909291908051906020019092919050505090919293949596979850909192939495969750909192939495965090919293949550909192939450909192935090919250909150905080915050610bdd83826040518060400160405280600581526020017f6b69747479000000000000000000000000000000000000000000000000000000815250611690565b505050565b60048181548110610bef57fe5b9060005260206000209060030201600091509050806000018054600181600116156101000203166002900480601f016020809104026020016040519081016040528092919081815260200182805460018160011615610100020316600290048015610c9b5780601f10610c7057610100808354040283529160200191610c9b565b820191906000526020600020905b815481529060010190602001808311610c7e57829003601f168201915b5050505050908060010154908060020160009054906101000a900463ffffffff16908060020160049054906101000a900463ffffffff16908060020160089054906101000a900461ffff169080600201600a9054906101000a900461ffff16905086565b3373ffffffffffffffffffffffffffffffffffffffff166005600083815260200190815260200160002060009054906101000a900473ffffffffffffffffffffffffffffffffffffffff1673ffffffffffffffffffffffffffffffffffffffff161480610dca57503373ffffffffffffffffffffffffffffffffffffffff16600b600083815260200190815260200160002060009054906101000a900473ffffffffffffffffffffffffffffffffffffffff1673ffffffffffffffffffffffffffffffffffffffff16145b610dd357600080fd5b610dde838383611872565b505050565b606080600660008473ffffffffffffffffffffffffffffffffffffffff1673ffffffffffffffffffffffffffffffffffffffff16815260200190815260200160002054604051908082528060200260200182016040528015610e545781602001602082028038833980820191505090505b509050600080905060008090505b600480549050811015610f05578473ffffffffffffffffffffffffffffffffffffffff166005600083815260200190815260200160002060009054906101000a900473ffffffffffffffffffffffffffffffffffffffff1673ffffffffffffffffffffffffffffffffffffffff161415610ef85780838381518110610ee357fe5b60200260200101818152505081806001019250505b8080600101915050610e62565b508192505050919050565b60056020528060005260406000206000915054906101000a900473ffffffffffffffffffffffffffffffffffffffff1681565b610f4b611267565b610f5457600080fd5b80600760006101000a81548173ffffffffffffffffffffffffffffffffffffffff021916908373ffffffffffffffffffffffffffffffffffffffff16021790555050565b6014828160048281548110610fa957fe5b906000526020600020906003020160020160009054906101000a900463ffffffff1663ffffffff161015610fdc57600080fd5b836005600082815260200190815260200160002060009054906101000a900473ffffffffffffffffffffffffffffffffffffffff1673ffffffffffffffffffffffffffffffffffffffff163373ffffffffffffffffffffffffffffffffffffffff161461104857600080fd5b836004868154811061105657fe5b9060005260206000209060030201600101819055505050505050565b60006005600083815260200190815260200160002060009054906101000a900473ffffffffffffffffffffffffffffffffffffffff169050919050565b6000600660008373ffffffffffffffffffffffffffffffffffffffff1673ffffffffffffffffffffffffffffffffffffffff168152602001908152602001600020549050919050565b611100611267565b61110957600080fd5b600073ffffffffffffffffffffffffffffffffffffffff166000809054906101000a900473ffffffffffffffffffffffffffffffffffffffff1673ffffffffffffffffffffffffffffffffffffffff167f8be0079c531659141344cd1fd0a4f28419497f9722a3daafe3b4186f6b6457e060405160405180910390a360008060006101000a81548173ffffffffffffffffffffffffffffffffffffffff021916908373ffffffffffffffffffffffffffffffffffffffff160217905550565b6000600660003373ffffffffffffffffffffffffffffffffffffffff1673ffffffffffffffffffffffffffffffffffffffff168152602001908152602001600020541461121457600080fd5b600061121f82611a50565b90506064818161122b57fe5b068103905061123a8282611ade565b5050565b60008060009054906101000a900473ffffffffffffffffffffffffffffffffffffffff16905090565b60008060009054906101000a900473ffffffffffffffffffffffffffffffffffffffff1673ffffffffffffffffffffffffffffffffffffffff163373ffffffffffffffffffffffffffffffffffffffff1614905090565b60028381600482815481106112cf57fe5b906000526020600020906003020160020160009054906101000a900463ffffffff1663ffffffff16101561130257600080fd5b846005600082815260200190815260200160002060009054906101000a900473ffffffffffffffffffffffffffffffffffffffff1673ffffffffffffffffffffffffffffffffffffffff163373ffffffffffffffffffffffffffffffffffffffff161461136e57600080fd5b84846004888154811061137d57fe5b9060005260206000209060030201600001919061139b929190611fe9565b50505050505050565b6113ac611267565b6113b557600080fd5b8060088190555050565b816005600082815260200190815260200160002060009054906101000a900473ffffffffffffffffffffffffffffffffffffffff1673ffffffffffffffffffffffffffffffffffffffff163373ffffffffffffffffffffffffffffffffffffffff161461142b57600080fd5b60006004848154811061143a57fe5b9060005260206000209060030201905060006004848154811061145957fe5b9060005260206000209060030201905060006114756064611db0565b9050600a5481116115a9576114aa60018460020160089054906101000a900461ffff1661ffff16611e4990919063ffffffff16565b8360020160086101000a81548161ffff021916908361ffff1602179055506114f660018460020160009054906101000a900463ffffffff1663ffffffff1661166890919063ffffffff16565b8360020160006101000a81548163ffffffff021916908363ffffffff160217905550611542600183600201600a9054906101000a900461ffff1661ffff16611e4990919063ffffffff16565b82600201600a6101000a81548161ffff021916908361ffff1602179055506115a48683600101546040518060400160405280600681526020017f7a6f6d6269650000000000000000000000000000000000000000000000000000815250611690565b611643565b6115d3600184600201600a9054906101000a900461ffff1661ffff16611e4990919063ffffffff16565b83600201600a6101000a81548161ffff021916908361ffff16021790555061161b60018360020160089054906101000a900461ffff1661ffff16611e4990919063ffffffff16565b8260020160086101000a81548161ffff021916908361ffff16021790555061164283611e6d565b5b505050505050565b611653611267565b61165c57600080fd5b61166581611e97565b50565b60008082840190508363ffffffff168163ffffffff16101561168657fe5b8091505092915050565b826005600082815260200190815260200160002060009054906101000a900473ffffffffffffffffffffffffffffffffffffffff1673ffffffffffffffffffffffffffffffffffffffff163373ffffffffffffffffffffffffffffffffffffffff16146116fc57600080fd5b60006004858154811061170b57fe5b9060005260206000209060030201905061172481611f8f565b61172d57600080fd5b600254848161173857fe5b06935060006002858360010154018161174d57fe5b04905060405160200180807f6b69747479000000000000000000000000000000000000000000000000000000815250600501905060405160208183030381529060405280519060200120846040516020018082805190602001908083835b602083106117ce57805182526020820191506020810190506020830392506117ab565b6001836020036101000a0380198251168184511680821785525050505050509050019150506040516020818303038152906040528051906020012014156118225760636064828161181b57fe5b0682030190505b6118616040518060400160405280600681526020017f4e6f4e616d65000000000000000000000000000000000000000000000000000081525082611ade565b61186a82611e6d565b505050505050565b6118c56001600660008573ffffffffffffffffffffffffffffffffffffffff1673ffffffffffffffffffffffffffffffffffffffff16815260200190815260200160002054611fb690919063ffffffff16565b600660008473ffffffffffffffffffffffffffffffffffffffff1673ffffffffffffffffffffffffffffffffffffffff1681526020019081526020016000208190555061195b6001600660003373ffffffffffffffffffffffffffffffffffffffff1673ffffffffffffffffffffffffffffffffffffffff16815260200190815260200160002054611fd290919063ffffffff16565b600660003373ffffffffffffffffffffffffffffffffffffffff1673ffffffffffffffffffffffffffffffffffffffff16815260200190815260200160002081905550816005600083815260200190815260200160002060006101000a81548173ffffffffffffffffffffffffffffffffffffffff021916908373ffffffffffffffffffffffffffffffffffffffff160217905550808273ffffffffffffffffffffffffffffffffffffffff168473ffffffffffffffffffffffffffffffffffffffff167fddf252ad1be2c89b69c2b068fc378daa952ba7f163c4a11628f55a4df523b3ef60405160405180910390a4505050565b600080826040516020018082805190602001908083835b60208310611a8a5780518252602082019150602081019050602083039250611a67565b6001836020036101000a0380198251168184511680821785525050505050509050019150506040516020818303038152906040528051906020012060001c90506002548181611ad557fe5b06915050919050565b6000600160046040518060c00160405280868152602001858152602001600163ffffffff168152602001600354420163ffffffff168152602001600061ffff168152602001600061ffff16815250908060018154018082558091505090600182039060005260206000209060030201600090919290919091506000820151816000019080519060200190611b73929190612069565b506020820151816001015560408201518160020160006101000a81548163ffffffff021916908363ffffffff16021790555060608201518160020160046101000a81548163ffffffff021916908363ffffffff16021790555060808201518160020160086101000a81548161ffff021916908361ffff16021790555060a082015181600201600a6101000a81548161ffff021916908361ffff1602179055505050039050336005600083815260200190815260200160002060006101000a81548173ffffffffffffffffffffffffffffffffffffffff021916908373ffffffffffffffffffffffffffffffffffffffff160217905550611cbc6001600660003373ffffffffffffffffffffffffffffffffffffffff1673ffffffffffffffffffffffffffffffffffffffff16815260200190815260200160002054611fb690919063ffffffff16565b600660003373ffffffffffffffffffffffffffffffffffffffff1673ffffffffffffffffffffffffffffffffffffffff168152602001908152602001600020819055507f88f026aacbbecc90c18411df4b1185fd8d9be2470f1962f192bf84a27d0704b78184846040518084815260200180602001838152602001828103825284818151815260200191508051906020019080838360005b83811015611d6f578082015181840152602081019050611d54565b50505050905090810190601f168015611d9c5780820380516001836020036101000a031916815260200191505b5094505050505060405180910390a1505050565b6000611dc86001600954611fb690919063ffffffff16565b600981905550814233600954604051602001808481526020018373ffffffffffffffffffffffffffffffffffffffff1673ffffffffffffffffffffffffffffffffffffffff1660601b815260140182815260200193505050506040516020818303038152906040528051906020012060001c81611e4157fe5b069050919050565b60008082840190508361ffff168161ffff161015611e6357fe5b8091505092915050565b60035442018160020160046101000a81548163ffffffff021916908363ffffffff16021790555050565b600073ffffffffffffffffffffffffffffffffffffffff168173ffffffffffffffffffffffffffffffffffffffff161415611ed157600080fd5b8073ffffffffffffffffffffffffffffffffffffffff166000809054906101000a900473ffffffffffffffffffffffffffffffffffffffff1673ffffffffffffffffffffffffffffffffffffffff167f8be0079c531659141344cd1fd0a4f28419497f9722a3daafe3b4186f6b6457e060405160405180910390a3806000806101000a81548173ffffffffffffffffffffffffffffffffffffffff021916908373ffffffffffffffffffffffffffffffffffffffff16021790555050565b6000428260020160049054906101000a900463ffffffff1663ffffffff1611159050919050565b600080828401905083811015611fc857fe5b8091505092915050565b600082821115611fde57fe5b818303905092915050565b828054600181600116156101000203166002900490600052602060002090601f016020900481019282601f1061202a57803560ff1916838001178555612058565b82800160010185558215612058579182015b8281111561205757823582559160200191906001019061203c565b5b50905061206591906120e9565b5090565b828054600181600116156101000203166002900490600052602060002090601f016020900481019282601f106120aa57805160ff19168380011785556120d8565b828001600101855582156120d8579182015b828111156120d75782518255916020019190600101906120bc565b5b5090506120e591906120e9565b5090565b61210b91905b808211156121075760008160009055506001016120ef565b5090565b9056fea265627a7a723158209f64538de797456e4cebdd827471c70236d4abbc1b5e695ea6a8910fc58dbe4864736f6c63430005100032",
  "source": "pragma solidity >=0.5.0 <0.6.0;\r\n\r\nimport \"./zombieattack.sol\";\r\nimport \"./erc721.sol\";\r\nimport \"./safemath.sol\";\r\n\r\ncontract ZombieOwnership is ZombieAttack, ERC721 {\r\n\r\n  using SafeMath for uint256;\r\n\r\n  mapping (uint => address) zombieApprovals;\r\n\r\n  function balanceOf(address _owner) external view returns (uint256) {\r\n    return ownerZombieCount[_owner];\r\n  }\r\n\r\n  function ownerOf(uint256 _tokenId) external view returns (address) {\r\n    return zombieToOwner[_tokenId];\r\n  }\r\n\r\n  function _transfer(address _from, address _to, uint256 _tokenId) private {\r\n    ownerZombieCount[_to] = ownerZombieCount[_to].add(1);\r\n    ownerZombieCount[msg.sender] = ownerZombieCount[msg.sender].sub(1);\r\n    zombieToOwner[_tokenId] = _to;\r\n    emit Transfer(_from, _to, _tokenId);\r\n  }\r\n\r\n  function transferFrom(address _from, address _to, uint256 _tokenId) external payable {\r\n      require (zombieToOwner[_tokenId] == msg.sender || zombieApprovals[_tokenId] == msg.sender);\r\n      _transfer(_from, _to, _tokenId);\r\n    }\r\n\r\n  function approve(address _approved, uint256 _tokenId) external payable onlyOwnerOf(_tokenId) {\r\n      zombieApprovals[_tokenId] = _approved;\r\n      emit Approval(msg.sender, _approved, _tokenId);\r\n    }\r\n\r\n}\r\n",
  "sourcePath": "C:\\Users\\Chris\\Documents\\Cryptocurrency and Blockchain\\CryptoZombies\\contracts\\zombieownership.sol",
  "compiler": {
    "name": "solc",
    "version": "0.5.16+commit.9c3226ce.Emscripten.clang"
  },
  "schemaVersion": "3.0.23",
  "updatedAt": "2020-02-23T07:36:38.864Z",
  "devdoc": {
    "methods": {
      "isOwner()": {
        "return": "true if `msg.sender` is the owner of the contract."
      },
      "owner()": {
        "return": "the address of the owner."
      },
      "renounceOwnership()": {
        "details": "Allows the current owner to relinquish control of the contract."
      },
      "transferOwnership(address)": {
        "details": "Allows the current owner to transfer control of the contract to a newOwner.",
        "params": {
          "newOwner": "The address to transfer ownership to."
        }
      }
    }
  },
  "userdoc": {
    "methods": {
      "renounceOwnership()": {
        "notice": "Renouncing to ownership will leave the contract without an owner. It will not be possible to call the functions with the `onlyOwner` modifier anymore."
      }
    }
  }
}